:020000040800F2
:10000000D819002059390008C9050008CB05000897
:10001000CF050008D3050008D70500080000000040
:10002000000000000000000000000000DB050008E8
:10003000DD05000800000000DF050008E1050008FC
:1000400073390008733900087339000873390008E0
:1000500073390008733900087339000873390008D0
:1000600073390008733900087339000873390008C0
:1000700073390008733900087339000873390008B0
:1000800073390008733900087339000873390008A0
:100090007339000873390008733900087339000890
:1000A0007339000873390008733900087339000880
:1000B00073390008112E00087339000873390008DD
:1000C0007339000873390008733900087339000860
:1000D0007339000825330008EF340008733900082D
:1000E0007339000873390008733900087339000840
:1000F0007339000873390008733900087339000830
:10010000733900087339000873390008733900081F
:10011000733900087339000873390008733900080F
:1001200073390008733900087339000873390008FF
:1001300000F002F800F03AF80AA090E8000C8244BF
:100140008344AAF10107DA4501D100F02FF8AFF29C
:10015000090EBAE80F0013F0010F18BFFB1A43F0A5
:10016000010318478C770000AC770000103A24BFD9
:1001700078C878C1FAD8520724BF30C830C144BF0C
:1001800004680C607047000000230024002500264E
:10019000103A28BF78C1FBD8520728BF30C148BFEA
:1001A0000B6070471FB51FBD10B510BD05F00CF9F1
:1001B0001146FFF7F7FF00F022F805F02AF903B423
:1001C000FFF7F2FF03BC02F0FDFF00002DE9F04154
:1001D00004460D460020E749086004E0E548006851
:1001E000401CE4490860E348006806F00EFB064640
:1001F00022462B4606F034FBF0D3BDE8F08100BF69
:1002000002F076FF4FF4A06003F0C6FB4FF41650E7
:1002100002F0E7FF02F00CFF4FF4165003F00EF966
:1002200041F63F7141F61F4002F0C5FD02F060FF4C
:100230009FE10020D049086003F019FACF4805F08B
:1002400084F8044606F0EAFFCD490860CD49CC4861
:10025000006806F0B5FECA490860CB480068CB4983
:1002600008606FF0BD00CA490860C548006802F028
:10027000F8FAC84841684FF07E5007F017F8044676
:10028000C44801684FF07E5007F010F80546C14899
:1002900021468268284601F0C1FBBF49086806F084
:1002A000F5FD8046BD4ABE4B06F028F90646002201
:1002B000BC4B06F011FB044606F032F8BA49086060
:1002C000B549486806F0E2FD0646B44AB44B06F06C
:1002D00015F980460022B34B06F0FEFA044606F0FC
:1002E0001FF8B1494860AC49886806F0CFFD064662
:1002F000AA4AAB4B06F002F980460022A94B06F051
:10030000EBFA044606F00CF8A74988600AF1010AE6
:100310006FF0BD009E490860A44800689B490860D2
:100320009748006801F0B3FDA1484168A14806F074
:10033000BDFF06469E4801689E4806F0B7FF074687
:100340009D4906F0CFFD0546002106F0CBFD044691
:10035000974831468268204601F060FB8E49086864
:1003600006F094FD80468D4A8D4B06F0C7F8064690
:1003700000228C4B06F0B0FA044605F0D1FF8F49FD
:1003800008608549486806F081FD8046834A844BB1
:1003900006F0B4F806460022824B06F09DFA0446A9
:1003A00005F0BEFF854948607B49886806F06EFD10
:1003B00006467A4A7A4B06F0A1F804460022794BA9
:1003C00006F08AFA804605F0ABFF7C4988600AF1A6
:1003D000010A4FF07E516A48006807F033F808D2EE
:1003E0004FF07E516648006807F068F8644908607D
:1003F00007E04FF07E516248006806F073FD6049E7
:1004000008606FF0BD0062490860684800685F4995
:1004100008605B48006802F024FA5E4841684FF0CB
:100420007E5006F043FF04465A4801684FF07E5064
:1004300006F03CFF0546574821468268284601F0F1
:10044000EDFA5549086806F021FD8046534A544BA1
:1004500006F054F806460022524B06F03DFA0446D8
:1004600005F05EFF564908604B49486806F00EFDEE
:1004700080464A4A4A4B06F041F806460022494B5C
:1004800006F02AFA044605F04BFF4D494860424900
:10049000886806F0FBFC8046404A414B06F02EF887
:1004A000064600223F4B06F017FA044605F038FFD7
:1004B000434988600AF1010A6FF0BD0034490860C1
:1004C00031480068314908602D48006801F0DFFCC0
:1004D00037484168374806F0E9FE05463448016868
:1004E000344806F0E3FE0646334906F0FBFC0446BA
:1004F0002F4829468268204601F090FA264908686C
:1005000006F0C4FC0646254A254B05F0F7FF0446D5
:100510000022244B06F0E0F9804605F001FF29494E
:1005200008601D49486806F0B1FC06461B4A1C4B92
:1005300005F0E4FF044600221A4B06F0CDF9804690
:1005400005F0EEFE1F4948601349886806F09EFCDE
:100550000646124A124B05F0D1FF04460022114B09
:1005600006F0BAF9804605F0DBFE164988600AF10C
:10057000010A5EE634000020600000200004004014
:100580003C00002000006145500000204000002099
:10059000640000201C0F0020A00100201F85EB51EB
:1005A000B81E094000806640B801002054000020B9
:1005B000040F0020000080BF0000204188010020BF
:1005C00094010020AC010020704700BFFEE700BF8F
:1005D000FEE700BFFEE700BFFEE7704770477047C9
:1005E000704700000CB50020019000906C48006836
:1005F00040F480306A49086000BF6948006800F430
:10060000003000900198401C0190009818B90198A2
:10061000B0F5A06FF1D16248006800F4003010B16D
:100620000120009001E0002000900098012843D1B3
:100630005C48006840F010005A49086008460068AD
:1006400020F0030008600846006840F002000860DF
:100650005348406852494860084640684860084628
:10066000406840F4806048600846406820F47C1090
:1006700048600846406840F4E81048600846006852
:1006800040F08070086000BF4548006800F00070CE
:100690000028F9D04248406820F0030040494860F3
:1006A0000846406840F00200486000BF3C4840688F
:1006B00000F00C000828F9D10CBD10B5FFF792FF2F
:1006C00010BD10B53648006840F00100344908609C
:1006D0000846406834490840314948600846006887
:1006E000324908402E4908600846006820F48020FE
:1006F00008600846406820F4FE0048604FF41F0080
:100700008860FFF7DAFF4FF000602949086010BDEC
:1007100010B5002100200022214B5B6803F00C0182
:1007200021B1042906D0082928D107E0214B224C09
:10073000236027E01F4B204C236023E0184B5B68AD
:1007400003F47010164B5B6803F48032022303EB52
:10075000904022B9194B4343174C23600DE0104BD6
:100760005B6803F4003323B1144B4343124C236002
:1007700003E0104B4343104C236003E00D4B0E4C41
:10078000236000BF00BF064B5B68C3F303130C4C30
:10079000E15C094B1B68CB40074C236010BD000097
:1007A00000100240002002400000FFF8FFFFF6FEAC
:1007B00008ED00E000127A006C00002000093D0006
:1007C000700000202DE9F04F87B08A469346FE491D
:1007D000584606F073FE064606F058FBCDE90401C4
:1007E000504606F053FB06460022F84B06F064FA2A
:1007F0000022F74BCDE9000106F06EF8CDE90201C9
:10080000DDE9042305F07AFE044605F0B5FB8046D9
:1008100005F086FD07B0BDE8F08F2DE9F74F98B0E1
:100820000C4691464A4621461898FFF7CBFFE94906
:1008300008600846006806F029FB074605F0ACFC96
:1008400005460022E44B06F047F882468B46DE4917
:10085000484606F033FE054606F018FB52465B4656
:10086000CDE9060105F08EFDCDE90A01D948006801
:1008700006F00CFB074605F08FFC0022D64BCDE9B5
:10088000060106F029F805460E46CF49484606F00F
:1008900015FE074606F0FAFA82462A46334605F068
:1008A00071FDCDE90801DDE90A2306F015F8CDE96F
:1008B0000E01C848006806F0E9FA074605F0BAFCE0
:1008C00005460022C44B06F007F8CDE90201204698
:1008D00006F0DCFA05460022BC4B06F0EDF9824634
:1008E000DDE9022306F0E8F9CDE90601B948006820
:1008F00006F0CCFA074605F09DFC05460022B64BF3
:1009000005F0EAFFCDE90201204606F0BFFA0546F0
:100910000022AE4B06F0D0F98246DDE9022306F054
:10092000CBF9CDE90401DDE9062305F0D5FFCDE9DA
:100930000A01AA49189806F0C1FD0746A749189868
:1009400006F0BCFD8046394606F0B0FC0646A449D8
:1009500006F0C8FA054606F099FACDE90801DDE986
:100960000A2305F00FFDCDE90C01DDE90E2305F0AA
:1009700009FD00229B4BCDE9100106F09DF9CDE960
:10098000120105F0CDFC16909248006806F07EFA40
:10099000824605F001FC00228F4BCDE9040105F0F1
:1009A0009BFF074688468849484606F087FD8246F1
:1009B00006F06CFA05463A46434605F0E3FCCDE9FD
:1009C00008018448006806F061FACDE9040105F0E9
:1009D000E3FB07460022804B05F07EFF82468B46F4
:1009E0007949484606F06AFD074606F04FFA054683
:1009F00052465B4605F0C6FCCDE90601DDE9082359
:100A000005F06AFFCDE90C017248006806F03EFA75
:100A1000054605F00FFC074600226F4B05F05CFF12
:100A200082468B46204606F031FA05460022674B87
:100A300006F042F952465B46CDE9000106F03CF96A
:100A4000CDE904016348006806F020FA054605F088
:100A5000F1FB07460022604B05F03EFF82468B46C5
:100A6000204606F013FA05460022584B06F024F9FA
:100A700052465B46CDE9000106F01EF9CDE90201C0
:100A8000DDE9042305F028FFCDE908015349189852
:100A900006F014FD06465149189806F00FFD07466A
:100AA000314606F003FC054606F0F0F9CDE90601F3
:100AB000DDE9082305F066FCCDE90A01DDE90C2338
:100AC00005F060FCCDE90E0105F004FC0022464B68
:100AD000CDE9100105F000FFCDE9120105F020FC81
:100AE0001590DDE9151006F06BFA1490149806F0D5
:100AF000CDF9074604F0CAFF054605F011FC3B4955
:100B000008601BB0BDE8F08F2DE9F74F94B00C469C
:100B100091463648006806F0B9F9CDE910012A4936
:100B2000484606F0CBFC06462749484606F0C6FC78
:100B30000746314606F0BAFB054606F0A7F9CDE9AF
:100B40000401204606F0A2F9074600221F4B06F0DA
:100B5000B3F805460E46204606F098F907460022EF
:100B60001A4B06F0A9F82A463346CDE9000105F0F4
:100B7000B3FECDE90201DDE9042305F003FCCDE974
:100B8000060105F0A7FB0022134BCDE9080106F092
:100B900093F8CDE90A011149149806F08FFC054637
:100BA00006F074F98246DDE90A2305F0A7FCCDE9D9
:100BB0000C0105F0E1F981F00041CDE90E01DDE91C
:100BC000102305F0DFFB13E00000A0C100E055C0DA
:100BD0000000F0BF8000002000004D4000001AC35C
:100BE0000000F24440B0B840000056408C000020A5
:100BF000CDE9120105F094FB17B0BDE8F08F2DE9A7
:100C0000F047804689469246FE48006806F03EF965
:100C10000646FD4AFD4B05F05FFE044605F080FBED
:100C2000BDE8F08770B504460D46164632462946A3
:100C30002046FFF7F2FD324629462046FFF7C2FD67
:100C4000F3490860324629462046FFF75DFFF04928
:100C50004860324629462046FFF7D1FFEC498860BC
:100C600070BD2DE9F04F87B08A469346E949584652
:100C700006F024FC064606F009F9CDE904015046C9
:100C800006F004F906460022E34B06F015F80022B0
:100C9000E24BCDE9000105F01FFECDE90201DDE9DF
:100CA000042305F02BFC044605F066F9804605F0A8
:100CB00037FB07B0BDE8F08F2DE9F74F98B00C4631
:100CC00091464A4621461898FFF7CBFFD449086061
:100CD0000846006806F0DAF8074605F05DFA0546B2
:100CE0000022D04B05F0F8FD82468B46C9494846A4
:100CF00006F0E4FB054606F0C9F852465B46CDE92E
:100D0000060105F03FFBCDE90A01C548006806F081
:100D1000BDF8074605F040FA0022C24BCDE90601B6
:100D200005F0DAFD05460E46BA49484606F0C6FB10
:100D3000074606F0ABF882462A46334605F022FB0A
:100D4000CDE90801DDE90A2305F0C6FDCDE90E0174
:100D5000B348006806F09AF8074605F06BFA0546B6
:100D60000022B04B05F0B8FDCDE90201204606F0A7
:100D70008DF805460022A84B05F09EFF8246DDE96E
:100D8000022305F099FFCDE90601A548006806F0A9
:100D90007DF8074605F04EFA05460022A14B05F006
:100DA0009BFDCDE90201204606F070F805460022C1
:100DB000994B05F081FF8246DDE9022305F07CFFB7
:100DC000CDE90401DDE9062305F086FDCDE90A0140
:100DD0009549189806F072FB07469349189806F053
:100DE0006DFB8046394606F061FA06468F4906F0EB
:100DF00079F8054606F04AF8CDE90801DDE90A234D
:100E000005F0C0FACDE90C01DDE90E2305F0BAFAD0
:100E10000022874BCDE9100105F04EFFCDE912010C
:100E200005F07EFA16907E48006806F02FF882469C
:100E300005F0B2F900227B4BCDE9040105F04CFD31
:100E4000074688467349484606F038FB824606F056
:100E50001DF805463A46434605F094FACDE90801E7
:100E60006F48006806F012F8CDE9040105F094F926
:100E7000074600226B4B05F02FFD82468B466549E5
:100E8000484606F01BFB074606F000F805465246AA
:100E90005B4605F077FACDE90601DDE9082305F0A8
:100EA0001BFDCDE90C015E48006805F0EFFF05462B
:100EB00005F0C0F9074600225A4B05F00DFD8246A9
:100EC0008B46204605F0E2FF05460022524B05F016
:100ED000F3FE52465B46CDE9000105F0EDFECDE99B
:100EE00004014F48006805F0D1FF054605F0A2F95E
:100EF000074600224B4B05F0EFFC82468B4620460E
:100F000005F0C4FF05460022434B05F0D5FE5246CE
:100F10005B46CDE9000105F0CFFECDE90201DDE938
:100F2000042305F0D9FCCDE908013F49189806F0E3
:100F3000C5FA06463C49189806F0C0FA07463146FD
:100F400006F0B4F9054605F0A1FFCDE90601DDE99B
:100F5000082305F017FACDE90A01DDE90C2305F0B5
:100F600011FACDE90E0105F0B5F90022314BCDE9BA
:100F7000100105F0B1FCCDE9120105F0D1F9159091
:100F8000DDE9151006F01CF81490149805F07EFFAA
:100F9000074604F07BFD054605F0C2F926490860C6
:100FA0001BB0BDE8F08F2DE9F74F94B00C46914689
:100FB0002148006805F06AFFCDE91001154948464F
:100FC00006F07CFA06461349484606F077FA0746CB
:100FD000314606F06BF9054605F058FFCDE90401EE
:100FE000204605F053FF074600220B4B05F064FE38
:100FF00005460E46204605F049FF07460022064BEF
:101000001CE000008C00002059971EF3F7DAF83F2F
:10101000880100200000A0C100E055C00000F0BF22
:101020009000002000004D4000001A430000F244F0
:1010300040B0B840000056409C00002005F03CFE47
:101040002A463346CDE9000105F046FCCDE9020110
:10105000DDE9042305F096F9CDE9060105F03AF93A
:101060000022FC4BCDE9080105F026FECDE90A017E
:10107000F949149806F022FA054605F007FF824662
:10108000DDE90A2305F03AFACDE90C0104F074FF1A
:10109000CDE90E01DDE9102305F074F9CDE9120167
:1010A00005F03EF917B0BDE8F08F2DE9F047804616
:1010B00089469246E948006805F0E8FE0646E84A97
:1010C000E84B05F009FC044605F02AF9BDE8F08775
:1010D00070B504460D461646324629462046FFF7AF
:1010E000EBFD324629462046FFF7BBFDDE4908608E
:1010F000324629462046FFF756FFDB494860324614
:1011000029462046FFF7D1FFD749886070BD2DE9F9
:10111000F04F87B08A469346D449584606F0CEF938
:10112000064605F0B3FECDE90401504605F0AEFEDB
:1011300006460022CE4B05F0BFFD0022CD4BCDE987
:10114000000105F0C9FBCDE90201DDE9042305F04A
:10115000D5F9044604F010FF804605F0E1F807B029
:10116000BDE8F08F2DE9F74F98B00C4691464A46FE
:1011700021461898FFF7CBFFBF4908600846006872
:1011800005F084FE074605F007F805460022B14B3E
:1011900005F0A2FB82468B46B449484606F08EF91C
:1011A000054605F073FE52465B46CDE9060105F0A3
:1011B000E9F8CDE90A01B048006805F067FE074686
:1011C00004F0EAFF0022A34BCDE9060105F084FB01
:1011D00005460E46A549484606F070F9074605F053
:1011E00055FE82462A46334605F0CCF8CDE9080183
:1011F000DDE90A2305F070FBCDE90E019E48006889
:1012000005F044FE074605F015F805460022914B0F
:1012100005F062FBCDE90201204605F037FE0546E8
:101220000022934B05F048FD8246DDE9022305F0DC
:1012300043FDCDE906019048006805F027FE07460A
:1012400004F0F8FF05460022824B05F045FBCDE98E
:101250000201204605F01AFE05460022844B05F0E7
:101260002BFD8246DDE9022305F026FDCDE90401D0
:10127000DDE9062305F030FBCDE90A017F49189826
:1012800006F01CF907467D49189806F017F98046C4
:10129000394606F00BF80646794905F023FE054667
:1012A00005F0F4FDCDE90801DDE90A2305F06AF84F
:1012B000CDE90C01DDE90E2305F064F80022714B45
:1012C000CDE9100105F0F8FCCDE9120105F028F890
:1012D00016906948006805F0D9FD824604F05CFF6D
:1012E00000225C4BCDE9040105F0F6FA074688467A
:1012F0005E49484606F0E2F8824605F0C7FD05461D
:101300003A46434605F03EF8CDE908015A480068E0
:1013100005F0BCFDCDE9040104F03EFF07460022C4
:101320004C4B05F0D9FA82468B465049484606F0A8
:10133000C5F8074605F0AAFD054652465B4605F08E
:1013400021F8CDE90601DDE9082305F0C5FACDE96C
:101350000C014948006805F099FD054604F06AFF54
:10136000074600223B4B05F0B7FA82468B462046E3
:1013700005F08CFD054600223D4B05F09DFC5246D4
:101380005B46CDE9000105F097FCCDE904013A4840
:10139000006805F07BFD054604F04CFF074600227F
:1013A0002C4B05F099FA82468B46204605F06EFDDF
:1013B000054600222E4B05F07FFC52465B46CDE9E8
:1013C000000105F079FCCDE90201DDE9042305F017
:1013D00083FACDE908012949189806F06FF8064606
:1013E0002649189806F06AF80746314605F05EFF70
:1013F000054605F04BFDCDE90601DDE9082304F0C3
:10140000C1FFCDE90A01DDE90C2304F0BBFFCDE902
:101410000E0104F05FFF00221B4BCDE9100105F027
:101420005BFACDE9120104F07BFF1590DDE91510A0
:1014300005F0C6FD1490149805F028FD074604F049
:1014400025FB054604F06CFF104908601BB0BDE8A1
:10145000F08F000000004D4000001A439C00002067
:1014600059971EF3F7DAF83F940100200000A0C15D
:1014700000E055400000F0BFA000002000001AC3AB
:101480000000F24440B0B84000005640AC000020DC
:101490002DE9F74F94B00C469146FE48006805F0E0
:1014A000F5FCCDE91001FC49484606F007F8064670
:1014B000F949484606F002F80746314605F0F6FEBF
:1014C000054605F0E3FCCDE90401204605F0DEFC0D
:1014D00007460022F14B05F0EFFB05460E4620467D
:1014E00005F0D4FC07460022EC4B05F0E5FB2A464C
:1014F0003346CDE9000105F0EFF9CDE90201DDE960
:10150000042304F03FFFCDE9060104F0E3FE0022CE
:10151000E34BCDE9080105F0CFFBCDE90A01E14934
:10152000149805F0CBFF054605F0B0FC8246DDE9D6
:101530000A2304F0E3FFCDE90C0104F01DFD81F066
:101540000041CDE90E01DDE9102304F01BFFCDE9D8
:10155000120104F0E5FE17B0BDE8F08F2DE9F04769
:10156000804689469246CB48006805F08FFC0646C7
:10157000CD4ACE4B05F0B0F9044604F0D1FEBDE8EB
:10158000F08770B504460D46164632462946204679
:10159000FFF7E8FD324629462046FFF7B8FDC4496B
:1015A0000860324629462046FFF772FFC04948606E
:1015B000324629462046FFF7D1FFBD49886070BDFD
:1015C0002DE9F04F87B08A469346BA49584605F050
:1015D00089FC064605F05AFCCDE90401504605F0A9
:1015E00055FC06460022AD4B05F066FB0022B24BCF
:1015F000CDE9000105F070F9CDE90201DDE9042330
:1016000004F07CFF044604F0B7FC804604F088FE3A
:1016100007B0BDE8F08F2DE9F74F98B00C46914622
:101620004A4621461898FFF7CBFFA44908600846B0
:10163000006805F02BFC074604F0AEFD05460022CD
:10164000974B05F049F982468B469349484605F089
:1016500035FF054605F01AFC52465B46CDE906010A
:1016600004F090FECDE90A019448006805F00EFCF4
:10167000074604F091FD0022894BCDE9060105F0F3
:101680002BF905460E468449484605F017FF0746E4
:1016900005F0FCFB82462A46334604F073FECDE992
:1016A0000801DDE90A2305F017F9CDE90E018348A9
:1016B000006805F0EBFB074604F0BCFD0546002280
:1016C000774B05F009F9CDE90201204605F0DEFB74
:1016D00005460022714B05F0EFFA8246DDE9022350
:1016E00005F0EAFACDE906017448006805F0CEFB82
:1016F000074604F09FFD05460022694B05F0ECF813
:10170000CDE90201204605F0C1FB05460022634BEE
:1017100005F0D2FA8246DDE9022305F0CDFACDE9E3
:101720000401DDE9062305F0D7F8CDE90A01644993
:10173000189805F0C3FE07466149189805F0BEFEEB
:101740008046394605F0B2FD06465E4905F0CAFB03
:10175000054605F09BFBCDE90801DDE90A2304F00D
:1017600011FECDE90C01DDE90E2304F00BFE002291
:10177000554BCDE9100105F09FFACDE9120104F0B7
:10178000CFFD16904D48006805F080FB824604F0BE
:1017900003FD0022424BCDE9040105F09DF8074608
:1017A00088463D49484605F089FE824605F06EFBB5
:1017B00005463A46434604F0E5FDCDE908013F48B9
:1017C000006805F063FBCDE9040104F0E5FC074681
:1017D0000022334B05F080F882468B462E4948465E
:1017E00005F06CFE074605F051FB054652465B4688
:1017F00004F0C8FDCDE90601DDE9082305F06CF829
:10180000CDE90C012D48006805F040FB054604F0C9
:1018100011FD07460022224B05F05EF882468B46FA
:10182000204605F033FB054600221C4B05F044FA28
:1018300052465B46CDE9000105F03EFACDE90401D0
:101840001E48006805F022FB054604F0F3FC07463D
:101850000022134B05F040F882468B46204605F0E7
:1018600015FB054600220D4B05F026FA52465B4655
:10187000CDE9000105F020FACDE90201DDE90423FC
:1018800005F02AF8CDE908010D49189805F016FE73
:1018900006461BE0AC0000200000A0C100E055405F
:1018A00000004D4000001AC359971EF3F7DAF83FC5
:1018B000AC0100200000A0410000F0BFB0000020FB
:1018C00000001A430088A64500D1B440FE4918988C
:1018D00005F0F4FD0746314605F0E8FC054605F045
:1018E000D5FACDE90601DDE9082304F04BFDCDE989
:1018F0000A01DDE90C2304F045FDCDE90E0104F0F9
:10190000E9FC0022F14BCDE9100104F0E5FFCDE93F
:10191000120104F005FD1590DDE9151005F050FBEE
:101920001490149805F0B2FA074604F0AFF8054693
:1019300004F0F6FCE64908601BB0BDE8F08F2DE925
:10194000F74F94B00C469146E148006805F09EFAC6
:10195000CDE91001DF49484605F0B0FD0646DD49F6
:10196000484605F0ABFD0746314605F09FFC0546AD
:1019700005F08CFACDE90401204605F087FA074608
:101980000022D54B05F098F905460E46204605F095
:101990007DFA07460022D04B05F08EF92A463346E1
:1019A000CDE9000104F098FFCDE90201DDE904234F
:1019B00004F0E8FCCDE9060104F08CFC0022C74BE2
:1019C000CDE9080105F078F9CDE90A01BE4914987E
:1019D00005F074FD054605F059FA8246DDE90A2353
:1019E00004F08CFDCDE90C0104F0C6FACDE90E013E
:1019F000DDE9102304F0C6FCCDE9120104F090FCEF
:101A000017B0BDE8F08F70B504460D461646B048D5
:101A100001684FF0804005F049FC70BD70B5044688
:101A20000D461646324629462046FFF7C9FDAC4909
:101A30000860324629462046FFF7EDFD324629462A
:101A40002046FFF77CFFA6494860324629462046DB
:101A5000FFF7D9FFA249886070BD2DE9F04F8DB026
:101A60008246A0480168006805F020FC834605F026
:101A70000DFA804600229C4B04F084FC064604F0DC
:101A800029FC04460022134604F026FFCDE9080194
:101A90005146504605F00AFC5146019005F006FCFF
:101AA000834605F0F3F906460022904B04F026FD2C
:101AB00004460D465146504605F0F8FB07468C4952
:101AC00005F07EFA064605F0E1F9804622462B46EF
:101AD00005F0F2F8CDE904018648006805F0D6F972
:101AE00004460022134604F0F7FECDE90201DDE9C9
:101AF000042304F0F1FECDE90601DDE9082304F03A
:101B0000FDFCCDE90A0104F00BFC7B4908600DB037
:101B1000BDE8F08F2DE9F14F86B07648006805F0FA
:101B2000B5F904460022754B04F0E8FCCDE902014A
:101B300070480168069805F0B9FB019005F0A6F918
:101B4000804600226D4B04F0D9FC04460D464FF050
:101B500080416448006805F033FA81466849654869
:101B6000006805F02DFA4946019005F0BBF9804662
:101B700005F08CF9064622462B4605F09DF8824674
:101B8000DDE9022304F0FEFBCDE9040104F0C8FB0B
:101B90005C49086007B0BDE8F08F2DE9FF5F56484B
:101BA000006805F073F9064604F044FB0446002281
:101BB000554B04F091FECDE900014F48006805F057
:101BC00065F9064604F0E8FA04460D464D480068FB
:101BD00005F05CF9804622462B4604F07DFE8246E5
:101BE000DDE9002305F068F8CDE9020104F098FB77
:101BF00004B0BDE8F09F2DE9FF5F3F48006805F0A5
:101C000045F9064604F0C8FA044600223E4B04F0AB
:101C100063FECDE900013848006805F037F9064653
:101C200004F008FB04460D463648006805F02EF91E
:101C3000804622462B4604F04FFE8246DDE9002313
:101C400004F0A0FBCDE9020104F06AFB04B0BDE89A
:101C5000F09F10B504462D48006805F0C7FA10BD86
:101C60002DE9F14F86B02A492248006805F0A8F90D
:101C7000804605F00BF904460D464FF080411948A7
:101C8000006805F09DF9804605F000F9CDE90401F2
:101C900018480168069805F009FB019005F0F6F870
:101CA00080460022154B04F029FCCDE90201DDE954
:101CB000042304F067FB064622462B4604F0FCFF93
:101CC000824604F02DFB25E000001A4300406240EC
:101CD000BC0000200000A0C100E0554000004D40C5
:101CE000A00100204400002040E8DD400000184032
:101CF0000000404140000020C00000200000F03FF4
:101D00000000C040C400002000E055C06400002076
:101D100000004040FE49086007B0BDE8F08F2DE9A3
:101D2000FF5FFC48006805F0B1F8064604F082FA4F
:101D300004460022F84B04F0CFFDCDE90001F54840
:101D4000006805F0A3F8064604F026FA04460D469E
:101D5000EF48006805F09AF8804622462B4604F0CA
:101D6000BBFD8246DDE9002304F0A6FFCDE90201B8
:101D700004F0D6FA04B0BDE8F09F2DE9FF5FE54816
:101D8000006805F083F8064604F006FA04460022CF
:101D9000E14B04F0A1FDCDE90001DE48006805F04B
:101DA00075F8064604F046FA04460D46D848006821
:101DB00005F06CF8804622462B4604F08DFD8246E5
:101DC000DDE9002304F0DEFACDE9020104F0A8FA0F
:101DD00004B0BDE8F09F2DE9F14F86B0069805F0FC
:101DE00055F88046CD4ACE4B04F076FD0022CD4B0F
:101DF000CDE9000104F082FBCDE9020104F01AFAFA
:101E000006460022C84B04F067FDCDE90401C7482F
:101E1000006804F0FAFC0446DDE9042304F0B2FA99
:101E2000824604F07DFA07B0BDE8F08F2DE9F14F4E
:101E300088B0089805F02AF88046BD4ABD4B04F0EA
:101E40004BFD0022B74BCDE9000104F057FBB34A2C
:101E5000B94BCDE9020104F02FFFCDE9040104F0F4
:101E60009BF906460022B04B04F036FDCDE9060191
:101E7000AE48006804F0C9FC0446DDE9062304F01E
:101E800081FA824604F04CFA09B0BDE8F08F70B5D3
:101E900004462046FFF73EFE2046FFF7E1FE2046BF
:101EA00004F0F4FF05460022A44B04F0D9FC23D231
:101EB0002046FFF734FF0546A14905F0F7F9A1498F
:101EC00008602046FFF759FF9E494860204604F00D
:101ED000DDFF05464FF055329B4B04F0C1FC05D2A7
:101EE0002046FFF778FF9749886018E02046FFF703
:101EF0009DFF9449886012E02046FFF74EFE05469C
:101F00008F4905F0D3F98F4908602046FFF773FE2B
:101F10008C4948602046FFF79CFE8A49886070BD66
:101F20002DE9F04F8DB0824688480168006805F0C1
:101F3000BDF9834604F0AAFF80460022844B04F0DA
:101F400021FA064604F0C6F904460022134604F0BE
:101F5000C3FCCDE908015146504605F0A7F95146AA
:101F6000019005F0A3F9834604F090FF0646002295
:101F7000784B04F0C3FA04460D465146504605F02E
:101F800095F90746744905F01BF8064604F07EFFF4
:101F9000804622462B4604F08FFECDE904016F48AF
:101FA000006804F073FF04460022134604F094FC1A
:101FB000CDE90201DDE9042304F08EFCCDE9060140
:101FC000DDE9082304F09AFACDE90A0104F0A8F942
:101FD000634908600DB0BDE8F08F2DE9F14F86B080
:101FE0005E48006804F052FF044600224D4B04F0A6
:101FF00085FACDE9020159480168069805F056F9BD
:10200000019004F043FF80460022464B04F076FA2C
:1020100004460D4653495148006804F0D1FF8146FB
:102020004FF080414948006804F0CAFF49460190DA
:1020300005F044FA804604F029FF064622462B4666
:1020400004F0A0F98246DDE9022304F035FECDE973
:10205000040104F065F94449086007B0BDE8F08F59
:102060002DE9FF5F3E48006804F010FF064604F0CB
:10207000E1F804460022284B04F02EFCCDE90001D3
:102080003748006804F002FF064604F085F804466D
:102090000D463548006804F0F9FE804622462B467E
:1020A00004F01AFC8246DDE9002304F005FECDE9C8
:1020B000020104F035F904B0BDE8F09F2DE9FF5F9F
:1020C0002748006804F0E2FE064604F065F804467E
:1020D0000022114B04F000FCCDE90001204800680B
:1020E00004F0D4FE064604F0A5F804460D461E484A
:1020F000006804F0CBFE804622462B4604F0ECFB41
:102100008246DDE9002304F03DF9CDE902012DE02E
:10211000C8000020C000002000E055C01F85EB5122
:10212000B81E19400000F03F000044406400002049
:10213000D7A3703D0AD72240B81E09400000E03FF7
:10214000000080BF040F00205555D53F44000020FB
:1021500040E8DD4000001840000040414000002001
:10216000CC0000200000C040D000002004F0D8F8CF
:1021700004B0BDE8F09F10B50446FE48006805F0C5
:1021800035F810BD2DE9F04F89B08246FA49FB4879
:10219000006804F015FF804604F078FECDE90601E2
:1021A0004FF08041F648006804F00AFF804604F0D2
:1021B0006DFECDE90401F148006880F00040514611
:1021C000019005F073F8834604F060FE804600221B
:1021D000EC4B04F093F9CDE90201DDE9042304F0AE
:1021E000D1F80646DDE9062304F0CCF8044604F0F5
:1021F00097F8E549086009B0BDE8F08F2DE9FF5F69
:10220000E248006804F042FE064604F013F8044673
:102210000022DF4B04F060FBCDE90001DB480068E1
:1022200004F034FE064603F0B7FF04460D46D648D8
:10223000006804F02BFE804622462B4604F04CFB3F
:102240008246DDE9002304F037FDCDE9020104F008
:1022500067F804B0BDE8F09F2DE9FF5FCB48006848
:1022600004F014FE064603F097FF04460022C84B14
:1022700004F032FBCDE90001C448006804F006FE1A
:10228000064603F0D7FF04460D46BF48006804F039
:10229000FDFD804622462B4604F01EFB8246DDE90A
:1022A000002304F06FF8CDE9020104F039F804B01E
:1022B000BDE8F09F2DE9F14F86B0069804F0E6FDE9
:1022C0008046B44AB44B04F007FB0022AD4BCDE985
:1022D000000104F013F9CDE9020103F0ABFF06465B
:1022E0000022AE4B04F0F8FACDE90401A1480068E1
:1022F00004F08BFA0446DDE9042304F043F8824637
:1023000004F00EF807B0BDE8F08F2DE9F14F88B06A
:10231000089804F0BBFD8046A14AA24B04F0DCFA09
:102320000022984BCDE9000104F0E8F8994A9E4B51
:10233000CDE9020104F0C0FCCDE9040103F02CFF5B
:1023400006460022954B04F0C7FACDE906018948FC
:10235000006804F05AFA0446DDE9062304F012F896
:10236000824603F0DDFF09B0BDE8F08F70B504468A
:102370002046FFF732FE2046FFF704FF204604F018
:1023800085FD05460022894B04F06AFA27D22046D3
:10239000FFF734FF0546864904F088FF8549086049
:1023A0002046FFF759FF0546814904F07FFF814928
:1023B0004860204604F06AFD05464FF055327E4BDA
:1023C00004F04EFA05D22046FFF774FF7949886081
:1023D0001CE02046FFF799FF7649886016E020460A
:1023E000FFF73EFE0546724904F060FF7149086040
:1023F0002046FFF763FE05466D4904F057FF6D491F
:1024000048602046FFF7B7FE6A49886070BD2DE935
:10241000F04F8DB082465A480168006804F046FFCC
:10242000834604F033FD80460022644B03F0AAFF8C
:10243000064603F04FFF04460022134604F04CFA10
:10244000CDE908015146504604F030FF5146019055
:1024500004F02CFF834604F019FD06460022584B79
:1024600004F04CF804460D465146504604F01EFF59
:102470000746544904F0A4FD064604F007FD8046D3
:1024800022462B4604F018FCCDE904013B480068C5
:1024900004F0FCFC04460022134604F01DFACDE9CA
:1024A0000201DDE9042304F017FACDE90601DDE9B4
:1024B000082304F023F8CDE90A0103F031FF424973
:1024C00008600DB0BDE8F08F2DE9F14F86B02B48C4
:1024D000006804F0DBFC044600222A4B04F00EF8EE
:1024E000CDE9020125480168069804F0DFFE01905D
:1024F00004F0CCFC80460022224B03F0FFFF044690
:102500000D4632491D48006804F05AFD81464FF0DF
:1025100080411B48006804F053FD4946019004F0D7
:10252000CDFF804604F0B2FC064622462B4603F05F
:1025300029FF8246DDE9022304F0BEFBCDE9040158
:1025400003F0EEFE2249086007B0BDE8F08F2DE9E8
:10255000FF5F1D48006804F099FC064603F06AFE20
:10256000044600221B4B04F0B7F9CDE900011648E0
:10257000006831E06400002000004040400000207E
:10258000440000200000F03FD4000020CC000020D8
:1025900000E055C01F85EB51B81E194000004440B3
:1025A000D7A3703D0AD72240B81E09400000E03F83
:1025B000000080BFF80E00205555D53F40E8DD40B3
:1025C0000000184000004041D80000200000C0403A
:1025D000DC00002000E0554004F058FC064603F003
:1025E000DBFD04460D46FE48006804F04FFC8046C3
:1025F00022462B4604F070F98246DDE9002304F000
:102600005BFBCDE9020103F08BFE04B0BDE8F09F57
:102610002DE9FF5FF348006804F038FC064603F03C
:10262000BBFD04460022F04B04F056F9CDE9000151
:10263000EC48006804F02AFC064603F0FBFD044663
:102640000D46E748006804F021FC804622462B46F0
:1026500004F042F98246DDE9002303F093FECDE960
:10266000020103F05DFE04B0BDE8F09F10B5044622
:10267000DE48006804F0BAFD10BD2DE9F04F89B0C6
:102680008246DB49DB48006804F09AFC804604F08F
:10269000FDFBCDE906014FF08041D748006804F00A
:1026A0008FFC804604F0F2FBCDE90401D1480068BC
:1026B00080F000405146019004F0F8FD834604F09C
:1026C000E5FB80460022CD4B03F018FFCDE9020167
:1026D000DDE9042303F056FE0646DDE9062303F098
:1026E00051FE044603F01CFEC549086009B0BDE870
:1026F000F08F2DE9FF5FBB48006804F0C7FB06467A
:1027000003F098FD04460022B74B04F0E5F8CDE94C
:102710000001B448006804F0B9FB064603F03CFD34
:1027200004460D46B648006804F0B0FB80462246D9
:102730002B4604F0D1F88246DDE9002304F0BCFA10
:10274000CDE9020103F0ECFD04B0BDE8F09F2DE9F6
:10275000FF5FA448006804F099FB064603F01CFDE7
:1027600004460022A04B04F0B7F8CDE900019D48D3
:10277000006804F08BFB064603F05CFD04460D4642
:102780009F48006804F082FB804622462B4604F0F6
:10279000A3F88246DDE9002303F0F4FDCDE9020150
:1027A00003F0BEFD04B0BDE8F09F2DE9F14F86B007
:1027B000069804F06BFB8046924A934B04F08CF829
:1027C00000228E4BCDE9000103F098FECDE9020115
:1027D00003F030FD064600228C4B04F07DF8CDE975
:1027E00004018248006804F010F80446DDE904237F
:1027F00003F0C8FD824603F093FD07B0BDE8F08FFB
:102800002DE9F14F88B0089804F040FB8046804ADB
:10281000804B04F061F80022784BCDE9000103F011
:102820006DFE784A7C4BCDE9020104F045FACDE912
:10283000040103F0B1FC06460022744B04F04CF88E
:10284000CDE906016948006803F0DFFF0446DDE9D1
:10285000062303F097FD824603F062FD09B0BDE850
:10286000F08F70B504462046FFF72EFE2046FFF796
:1028700004FF204604F00AFB05460022674B03F0E4
:10288000EFFF1FD22046FFF734FF6549086020465E
:10289000FFF75DFF62494860204604F0F7FA0546FD
:1028A0004FF055325F4B03F0DBFF05D22046FFF7B8
:1028B0007CFF5B49886014E02046FFF7A1FF584980
:1028C00088600EE02046FFF742FE5549086020462A
:1028D000FFF79EFE524948602046FFF7C7FE504969
:1028E000886070BD2DE9F04F8DB082464248016886
:1028F000006804F0DBFC834604F0C8FA804600223E
:10290000494B03F03FFD064603F0E4FC0446002279
:10291000134603F0E1FFCDE908015146504604F0AB
:10292000C5FC5146019004F0C1FC834604F0AEFAA8
:10293000064600223D4B03F0E1FD04460D4651469C
:10294000504604F0B3FC0746394904F039FB06460B
:1029500004F09CFA804622462B4604F0ADF9CDE9FE
:1029600004012448006804F091FA0446002213464A
:1029700003F0B2FFCDE90201DDE9042303F0ACFF6F
:10298000CDE90601DDE9082303F0B8FDCDE90A0130
:1029900003F0C6FC274908600DB0BDE8F08F2DE9B3
:1029A000F14F86B01348006804F070FA0446002224
:1029B000124B03F0A3FDCDE902010E480168069811
:1029C00004F074FC019004F061FA804600220B4B85
:1029D00003F094FD04460D464FF0804106482BE07D
:1029E000DC000020D800002000E0554064000020FA
:1029F0000000404040000020440000200000F03F64
:102A0000E00000201F85EB51B81E19400000444033
:102A1000D7A3703D0AD72240B81E09400000E03F0E
:102A20001C0F00205555D53F40E8DD400000184000
:102A300000004041E4000020006804F0C1FA814633
:102A4000FD49FE48006804F0BBFA4946019004F0D5
:102A500049FA804604F01AFA064622462B4604F04C
:102A60002BF98246DDE9022303F08CFCCDE9040159
:102A700003F056FCF249086007B0BDE8F08F2DE97D
:102A8000FF5FF048006804F001FA064603F0D2FB4D
:102A900004460022EC4B03F01FFFCDE90001E9489A
:102AA000006804F0F3F9064603F076FB04460D4691
:102AB000E348006804F0EAF9804622462B4603F01A
:102AC0000BFF8246DDE9002304F0F6F8CDE90201B0
:102AD00003F026FC04B0BDE8F09F2DE9FF5FD94864
:102AE000006804F0D3F9064603F056FB04460022C2
:102AF000D54B03F0F1FECDE90001D248006804F0A7
:102B0000C5F9064603F096FB04460D46CC4800681E
:102B100004F0BCF9804622462B4603F0DDFE8246D7
:102B2000DDE9002303F02EFCCDE9020103F0F8FB00
:102B300004B0BDE8F09F10B50446C448006804F036
:102B400055FB10BD2DE9F14F86B0C149BB48006867
:102B500004F036FA804604F099F904460D464FF029
:102B60008041BC48006804F02BFA804604F08EF9DE
:102B7000CDE90401B1480168069804F097FB019083
:102B800004F084F980460022B34B03F0B7FCCDE992
:102B90000201DDE9042303F0F5FB064622462B463D
:102BA00004F08AF8824603F0BBFBAC49086007B02A
:102BB000BDE8F08F2DE9FF5FA248006804F066F9D8
:102BC000064603F037FB044600229F4B03F084FEC9
:102BD000CDE900019B48006804F058F9064603F06F
:102BE000DBFA04460D469D48006804F04FF9804624
:102BF00022462B4603F070FE8246DDE9002304F0F6
:102C00005BF8CDE9020103F08BFB04B0BDE8F09F57
:102C10002DE9FF5F8B48006804F038F9064603F0A1
:102C2000BBFA04460022884B03F056FECDE90001B2
:102C30008448006804F02AF9064603F0FBFA0446CB
:102C40000D468648006804F021F9804622462B464E
:102C500003F042FE8246DDE9002303F093FBCDE959
:102C6000020103F05DFB04B0BDE8F09F2DE9F14FD8
:102C700086B0069804F00AF98046794A794B03F049
:102C80002BFE0022744BCDE9000103F037FCCDE9A7
:102C9000020103F0CFFA06460022734B03F01CFE3C
:102CA000CDE904016948006803F0AFFD0446DDE9A1
:102CB000042303F067FB824603F032FB07B0BDE854
:102CC000F08F2DE9F14F88B0089804F0DFF88046C6
:102CD000664A674B03F000FE00225F4BCDE900011E
:102CE00003F00CFC5E4A634BCDE9020103F0E4FF04
:102CF000CDE9040103F050FA064600225A4B03F0D6
:102D0000EBFDCDE906015148006803F07EFD044665
:102D1000DDE9062303F036FB824603F001FB09B030
:102D2000BDE8F08F70B504462046FFF738FE204618
:102D3000FFF708FF204604F0A9F8054600224E4B95
:102D400003F08EFD23D22046FFF734FF4B49086085
:102D50002046FFF75DFF0546494904F0A7FA4749B9
:102D60004860204604F092F805464FF05532454B36
:102D700003F076FD05D22046FFF778FF3F498860D3
:102D800018E02046FFF79DFF3C49886012E020468E
:102D9000FFF775FE394908602046FFF79EFE05469D
:102DA000374904F083FA354948602046FFF7C3FEEF
:102DB0003249886070BD7FB505460C46012102206E
:102DC00001F081F9ADF80850ADF804400020ADF8ED
:102DD0000A00ADF8060001A92B4801F0A3FC01226E
:102DE0001146294802F015F81D208DF8000000203A
:102DF0008DF8010003208DF8020001208DF80300FA
:102E0000684600F0CEFD01211F4801F0E7FF7FBDBD
:102E100010B501211C4802F0AAFAD8B31B4800687B
:102E2000401C1A4908600121174802F0B1FA01213B
:102E3000174801F0DBFA2EE00000C04040000020FF
:102E4000E8000020E400002000E05540640000207D
:102E500000004040440000200000F03FEC00002053
:102E60001F85EB51B81E194000004440D7A3703DA8
:102E70000AD72240B81E09400000E03F100F002092
:102E8000000080BF5555D53F0004004038000020A9
:102E90000038014006E000BF4021554801F014FB16
:102EA0000128F9D110BD70B50446204603F0EEFFAD
:102EB0000546504A504B03F0D3FC0FD24F495048BF
:102EC000006804F07DF805464E4904F00BF84E49C1
:102ED00008604E4848604E48886035E04FF07E51AB
:102EE000204604F0AFF90FD24A494548006804F083
:102EF00067F80546434904F0D6FA43490860434859
:102F00004860434888601FE0204603F0BFFF054645
:102F1000414A424B03F0A4FC07D23A483A490860C0
:102F20003A4848603E4888600EE0344934480068BA
:102F300004F046F80546334903F0D4FF32490860EF
:102F4000324848603248886070BD70B504462046FB
:102F500003F09CFF0546274A274B03F081FC0FD264
:102F60002C492748006804F02BF80546254904F051
:102F70009AFA2C490860254848602548886035E061
:102F80004FF07E51204604F05DF90FD21B491C48DA
:102F9000006804F015F805461A4903F0A3FF21491B
:102FA00008601A4848601A4888601FE0204603F00D
:102FB0006DFF05461C4A1D4B03F052FC07D2114819
:102FC0001849086011484860154888600EE01149AA
:102FD0000B48006803F0F4FF05460A4904F063FA61
:102FE00010490860094848600948886070BD0000C1
:102FF000003801409A9999999999B93F0000C040C9
:103000004000002000001A43040F00200000AF42DF
:10301000000048C300004040B537F8C264AAFA3F38
:10302000000020C31C0F0020DA1B7C613255F53FE5
:103030002DE9F04100202849086046E02648006854
:10304000B42190FBF1F4204603F0DFFB0546234A50
:10305000234B03F041FC074602F056FE214A1E4B6B
:103060001B6802EBC30203C21B480068B42190FB3B
:10307000F1F4204603F0C9FB0546184A184B03F04B
:103080002BFC074602F002FD174A134B1B6802EBAC
:10309000C30203C210480068B42190FBF1F420463B
:1030A00003F0B3FB05460D4A0D4B03F015FC074634
:1030B00002F062FF0D4A084B1B6802EBC30203C219
:1030C00005480068401C0449086003480068B0F5E2
:1030D000887FB3DBBDE8F081F0000020A7E8482E30
:1030E000FF210940C4010020000600203C0A002006
:1030F00010B56FF0040000F09EFC2E4800682E49C9
:10310000B0FBF1F02D4908700846007800EB400153
:10311000C1EBC0104FF6FF7101EAC00028490880DA
:1031200010BD0146254A12784A434FF0E0235A6108
:1031300000229A611A46126942F001021A6100BF28
:103140004FF0E022106900F001021AB100F4803261
:10315000002AF5D04FF0E022126922F001024FF070
:10316000E0231A6100229A6170470146144A1288CE
:103170004A434FF0E0235A6100229A611A461269CD
:1031800042F001021A6100BF4FF0E022106900F026
:1031900001021AB100F48032002AF5D04FF0E0228B
:1031A000126922F001024FF0E0231A6100229A61B5
:1031B000704700006C00002000127A00F40000202C
:1031C000F6000020014600BF704700BFF84A128891
:1031D00002F04002002AF9D0C2B2F54B1B1D1A8042
:1031E000704710B586B00446012144F2040000F097
:1031F0005DFF4FF40070ADF8140003208DF8160049
:1032000018208DF8170005A9EA4800F093FC4FF448
:103210008060ADF8140004208DF8170005A9E5487A
:1032200000F088FC25208DF8000003208DF80100B7
:103230008DF8020001208DF80300684600F0B1FB14
:1032400001940020ADF80800ADF80A00ADF80C00BC
:10325000ADF810000C20ADF80E0001A9D44800F024
:10326000CCFF012240F22551D14801F05EF8012146
:10327000CF4801F04EF806B010BD2DE9F05F814651
:10328000CD49484604F0DEF822D8CC49484604F03F
:1032900015F983464FF0864104F010F9824603F099
:1032A000F5FD0746C64AC74B03F016FB054603F07B
:1032B00037F80446C449204604F0C4F800D2C24C92
:1032C000C148C2490860214604F0F8F8C0490860C6
:1032D000B949484603F0B6FF22D2B849484604F03F
:1032E000E2F883464FF0864103F0FCFD824603F08E
:1032F000CDFD0746B24AB34B03F0EEFA054603F0A4
:103300000FF80446B049204604F09CF800D2AE4CB9
:10331000AD48AF490860214604F0D0F8AB490860D9
:10332000BDE8F09F70B540F22771A14801F0E2F8C6
:10333000E0B1A84802780078401CA64B1870A64857
:10334000815C9B4801F052F840F22771984801F0E7
:10335000FBF8A0480078A1490978884237D10022BB
:1033600040F22771924800F0E0FF30E040F2255132
:103370008F4801F0BFF850B38D4801F03BF8C4B25C
:10338000FF2C08D0802C02DD9548046003E0002C5F
:1033900001DD944804609248006803F027FF054669
:1033A000FFF76BFF0121824801F020F800BF4021A8
:1033B0007F4801F089F80128F9D18B480068401C4A
:1033C000894908604FF45871794801F0BDF870BD23
:1033D00000B585B00121042000F068FE01214804F9
:1033E00000F071FE0420ADF8100018208DF81300D5
:1033F00003208DF8120004A96E4800F09BFB082002
:10340000ADF8100004208DF8130004A9694800F0FD
:1034100091FB4FF4165000900020ADF80400ADF879
:103420000600ADF80800ADF80C000C20ADF80A005D
:1034300069466E4800F0E1FE05B000BD10B586B0EB
:1034400004460121042000F031FE0121480400F06F
:103450003AFE0420ADF8140018208DF81700032060
:103460008DF8160005A9534800F064FB0820ADF85C
:10347000140004208DF8170005A94E4800F05AFBEF
:1034800001940020ADF80800ADF80A00ADF80C007A
:10349000ADF810000C20ADF80E0001A9534800F063
:1034A000ACFE002240F22771504800F03EFF402160
:1034B0004E4801F016F8012240F225514B4800F029
:1034C00034FF0121494800F024FF06B010BD08B5C3
:1034D00026208DF8000000208DF801008DF80200F4
:1034E00001208DF80300684600F05BFA08BD10B5B6
:1034F00040F227713D4800F0FDFFE0B13C48027802
:103500000078401C3A4B18703A48815C374800F00C
:103510006DFF40F22771354801F016F83448007805
:1035200035490978884279D1002240F227712F4825
:1035300000F0FBFE72E040F225512C4800F0DAFF6B
:1035400000286BD0294800F055FFC4B22B480088F2
:1035500050B12A480088401E294941F82040274898
:103560000088401C25490880FF2C02D101202349F6
:103570000880DCB921480088082847D1002021496B
:1035800008600EE01E481F49096850F821101E48C7
:103590001C4A126840F822101A480068401C194959
:1035A0000860184800680628ECDB32E031E035E0BE
:1035B000003801400008014000003F4300007C4209
:1035C0009A99999999590840000034435000002075
:1035D00054000020FC0000202C110020FD000020E1
:1035E000580000205C0000206800002000440040DB
:1035F000F8000020280F0020F90000201001002012
:103600003012002000010020780E00200020C64962
:10361000088040F22551C54800F096FF10BD10B556
:103620000446C34801780078401CC14A1070C14864
:103630004454012240F22771BC4800F076FE10BDD0
:1036400010B504460FE020780D2802D1FFF7E7FF00
:1036500008E020780A2802D1FFF7E1FF02E0207895
:10366000FFF7DDFF641C20780028ECD110BD10B5F9
:10367000FF21AE4800F0BAFE00BF4021AB4800F089
:1036800023FF0128F9D10220AB49086036E0AB499D
:10369000A94A126851F82200002103F053FD06D117
:1036A0004FF07E51A548A44A126840F82210A34961
:1036B000A14A126851F82200A14903F043FD05D147
:1036C000A0499E489C4A126840F822109B499A4A99
:1036D000126851F8220003F069FD84B22146934834
:1036E00000F084FE00BF4021904800F0EDFE01286C
:1036F000F9D191480068401E8F4908608E480068E3
:103700000028C4DA90494868002103F01BFD03D16A
:103710004FF07E508C4948608B494868884903F0D7
:1037200011FD02D18748884948608749486803F0FD
:103730003DFD84B221467D4800F058FE00BF402187
:103740007A4800F0C1FE0128F9D17F49886800213C
:1037500003F0F8FC03D14FF07E507B4988607A4932
:103760008868774903F0EEFC02D176487649886094
:103770007549886803F01AFD84B221466B4800F051
:1037800035FE00BF4021694800F09EFE0128F9D1B6
:103790006D490868002103F0D5FC03D14FF07E503D
:1037A0006949086068490868654903F0CBFC02D1A3
:1037B0006448654908606449086803F0F7FC84B20E
:1037C00021465A4800F012FE00BF4021574800F041
:1037D0007BFE0128F9D102205749086036E05B4999
:1037E000554A126851F82200002103F0ABFC06D1C3
:1037F0004FF07E515548504A126840F82210534904
:103800004D4A126851F822004D4903F09BFC05D146
:103810004C484E49484A126841F822004B49464AF2
:10382000126851F8220003F0C1FC84B221463F48DF
:1038300000F0DCFD00BF40213C4800F045FE0128BF
:10384000F9D13D480068401E3B4908603A4800688D
:103850000028C4DA02203849086036E03C49364A7C
:10386000126851F82200002103F06CFC06D14FF0E1
:103870007E513748304A126840F8221034492E4AA7
:10388000126851F822002E4903F05CFC05D12D4945
:103890002F48294A126840F822102D49264A1268FA
:1038A00051F8220003F082FC84B221461F4800F048
:1038B0009DFD00BF40211D4800F006FE0128F9D102
:1038C0001D480068401E1C4908601B48006800280D
:1038D000C4DA2048006858B90121144800F086FD78
:1038E00000BF4021114800F0EFFD0128F9D10EE0A2
:1038F0001848006801280AD1FE210C4800F076FD26
:1039000000BF4021094800F0DFFD0128F9D1002166
:10391000064800F06BFD00BF4021044800F0D4FDD4
:103920000128F9D110BD0000100100200044004022
:10393000FB000020280F002004010020B801002017
:1039400000007F4300007E43940100208801002096
:10395000AC0100206000002009488047094800476A
:10396000FEE7FEE7FEE7FEE7FEE7FEE7FEE7FEE72F
:10397000FEE7FEE704480549054A064B704700008C
:10398000C306000831010008D8130020D819002010
:10399000D8150020D815002031490143314A116063
:1039A000704770B5002100230F22C47804B32D4C5A
:1039B000246804F4E064C4F5E064210AC1F104035E
:1039C000CA40447804FA03F1847814402143090181
:1039D000254C0678A155047804F01F050124AC405D
:1039E00005786D11AD0005F1E025C5F8004109E04D
:1039F000047804F01F050124AC401C4D06787611B4
:103A000045F8264070BD1A4A0A400243154B1B1F59
:103A10001A60704739B1134A121D12680243114BE4
:103A20001B1D1A6006E00F4A121D126882430D4BDF
:103A30001B1D1A607047042808D14FF0E021096966
:103A400041F004014FF0E022116107E04FF0E02166
:103A5000096921F004014FF0E02211617047000074
:103A60000000FA050CED00E000E400E080E100E079
:103A700080FFFF1F10B50446CC48844208D10121C5
:103A8000042000F02DFB0021042000F029FB46E07B
:103A9000C748844208D10121082000F021FB002101
:103AA000082000F01DFB3AE0C248844208D1012101
:103AB000102000F015FB0021102000F011FB2EE07B
:103AC000BD48844208D10121202000F009FB0021DB
:103AD000202000F005FB22E0B848844208D10121F3
:103AE000402000F0FDFA0021402000F0F9FA16E035
:103AF000B348844208D10121802000F0F1FA00216E
:103B0000802000F0EDFA0AE0AE48844207D101219E
:103B1000801500F0E5FA0021A01500F0E1FA10BDD3
:103B200010B50121084600F0DBFA0021012000F069
:103B3000D7FA10BD2DE9F0410246002500260020ED
:103B400000230024002791F803C00CF00F0591F822
:103B500003C00CF0100CBCF1000F03D091F802C0B0
:103B60004CEA050591F800C0BCF1000F31D0146893
:103B700000202BE04FF0010C0CFA00F3B1F800C06C
:103B80000CEA03069E4220D183004FF00F0C0CFA82
:103B900003F7BC4305FA03FC4CEA040491F803C0A4
:103BA000BCF1280F06D14FF0010C0CFA00FCC2F852
:103BB00014C00AE091F803C0BCF1480F05D14FF0E2
:103BC000010C0CFA00FCC2F810C0401C0828D1D32C
:103BD0001460B1F800C0BCF1FF0F34DD5468002060
:103BE0002EE000F1080C4FF0010808FA0CF3B1F8D0
:103BF00000C00CEA03069E4221D183004FF00F0C57
:103C00000CFA03F7BC4305FA03FC4CEA040491F8F0
:103C100003C0BCF1280F05D100F1080C08FA0CF81C
:103C2000C2F8148091F803C0BCF1480F07D100F12D
:103C3000080C4FF0010808FA0CF8C2F81080401C7C
:103C40000828CED35460BDE8F0814FF6FF710180A3
:103C5000022181700421C1707047024600209368E0
:103C60000B400BB1012000E000207047014688683E
:103C700080B2704702460020D3680B400BB1012090
:103C800000E0002070470146C86880B270470161BB
:103C90007047416170470AB1016100E041617047BE
:103CA000C16070474FF480320A4382618161826152
:103CB00082698269704702460020434B18684FF6BC
:103CC0008073184040EA021008433F4B1860704769
:103CD0003E49C8617047F0B50A4600230024002120
:103CE000002500F00046B6F1004F02D1364EF169D2
:103CF00001E0354E7168C0F3034583B200F440160D
:103D0000B6F5401F08D121F070612F4E766826F07D
:103D100070662D4F7E6012E000F48016B6F5801FAD
:103D200006D1032606FA05F4A14341F0706106E0CE
:103D3000460D360103FA06F6B14341F0706122B137
:103D4000460D360103FA06F6314300F00046B6F19F
:103D5000004F02D11C4EF16101E01B4E7160F0BDBD
:103D600030B500228B071C0F0F2303FA04F2164B09
:103D700008338C1053F824309343134C08348D10BF
:103D800044F8253023468C1053F824308C07240F38
:103D900000FA04F423430C4C08348D1044F8253009
:103DA00030BD0A49DC31086070470000000801405E
:103DB000000C0140001001400014014000180140B7
:103DC000001C014000200140000001400000204292
:103DD000DF48006840F00100DD490860084640689F
:103DE000DC490840DA49486008460068DA4908407A
:103DF000D74908600846006820F48020086008461B
:103E0000406820F4FE0048604FF41F00886070474F
:103E1000CF49096821F48031CD4A11601146096803
:103E200021F480211160B0F5803F03D0B0F5802FE0
:103E30000ED106E0C649096841F48031C44A1160D8
:103E400007E0C349096841F4A021C14A116000E0BC
:103E500000BF00BF704710B50146002200230020BC
:103E60004A11012A02D1BA4C236806E0022A02D183
:103E7000B74C236A01E0B64C636A01F01F020124CB
:103E800094401C400CB1012000E0002010BD38B56A
:103E9000002000900024002500BF3120FFF7DBFF49
:103EA00005460098401C00900098B0F5A06F01D026
:103EB000002DF2D03120FFF7CEFF08B1012400E041
:103EC0000024204638BD01460020A14A106820F099
:103ED000F80040EAC10010607047A04908607047D0
:103EE000024600209A4B586820F47C1042EA0103F5
:103EF0001843974B586070479849086670470146C9
:103F00000020934A506820F0030008435060704737
:103F10008F48406800F00C007047014600208C4A32
:103F2000506820F0F00008435060704701460020C0
:103F3000874A506820F4E0600843506070470146AB
:103F40000020834A506820F4605040EAC10050606D
:103F5000704729B17E4A527A02437D4B5A7204E07F
:103F60007B4A527A82437A4B5A7270477B49D831E6
:103F70000860704701460020754A506820F44040B0
:103F80000843506070470021714A20321170704A16
:103F900082F82010012802D004280AD104E001216F
:103FA0006B4A2032117005E00521694A20321170F8
:103FB00000E000BF00BF704769490860704764496E
:103FC000096A0143624A11627047654944390860D1
:103FD000704730B500210022002400235C4D6D683D
:103FE00005F00C0121B1042905D0082923D105E0F1
:103FF0005C4D056022E05B4D05601FE0544D6D682F
:1040000005F47012524D6D6805F48034022505EBFD
:1040100092421CB9544D554305600BE04C4D6D6800
:1040200005F400351DB1504D5543056002E04D4D7E
:104030005543056002E04B4D056000BF00BF444D95
:104040006D6805F0F0010909484D6B5C0568DD40BD
:1040500045603F4D6D6805F4E061090A434D6B5CB6
:104060004568DD4085603A4D6D6805F46051C90AC8
:104070003E4D6B5C4568DD40C560354D6D6805F4AF
:104080004041890B3A4D6B5CC568B5FBF3F50561A2
:1040900030BD29B12E4A526902432D4B5A6104E0CA
:1040A0002B4A526982432A4B5A61704729B1284AE8
:1040B00092690243264B9A6104E0254A9269824341
:1040C000234B9A61704729B1214AD2690243204BA0
:1040D000DA6104E01E4AD26982431D4BDA617047FF
:1040E00029B11B4AD2680243194BDA6004E0184A2E
:1040F000D2688243164BDA60704729B1144A1269BC
:104100000243134B1A6104E0114A12698243104BB7
:104110001A61704712494039086070470F49C864F6
:1041200070470B49C87170470948406A40F0807079
:1041300007494862704701460020054A92680A40D4
:104140000AB1012000E000207047014988727047E1
:10415000001002400000FFF8FFFFF6FE00004242A0
:104160008004424200127A0000093D001301002041
:104170002301002010B50446FB48844209D10121E7
:104180008803FFF7ADFF00214FF48040FFF7A8FF41
:1041900032E0F648844209D101214804FFF7ADFF1F
:1041A00000214FF40030FFF7A8FF25E0F0488442DB
:1041B00009D101218804FFF7A0FF00214FF48020DE
:1041C000FFF79BFF18E0EB48844209D10121C804A6
:1041D000FFF793FF00214FF40020FFF78EFF0BE065
:1041E000E548844208D101210805FFF786FF002138
:1041F0004FF48010FFF781FF10BD2DE9F04786B026
:1042000005460E460024A24600BFA1460027B089FD
:1042100000B100BF2F462C8A4CF6FF700440F08896
:1042200004432C82AC894EF6F3100440B0883189E7
:104230000843718908430443AC81AC8A4FF6FF40C0
:104240000440B0890443AC8201A8FFF7C2FEC6480F
:10425000874202D1DDF810A001E0DDF80CA0A889AA
:1042600000F4004040B10AEBCA0000EB0A103168CC
:104270004900B0FBF1F807E00AEBCA0000EB0A10B6
:1042800031688900B0FBF1F86420B8FBF0F004015C
:104290002009642101FB1089A88900F4004040B185
:1042A000322000EBC900B0FBF1F000F0070004433E
:1042B00008E0322000EB09106421B0FBF1F000F0BF
:1042C0000F0004432C8106B0BDE8F0874FF416516F
:1042D000016000218180C18001810C214181002188
:1042E0008181704710B502460020108A4FF2FF030B
:1042F00018400B884C8823438C882343CC88234365
:104300001843108210BD0021018041808180C1804E
:10431000704721B1828942F40052828104E082898F
:104320004DF6FF731A4082817047F0B503460024B2
:1043300000260025002040F66A17B94200D100BFD0
:104340001846C1F3421401F01F06012707FA06F5CB
:10435000012C01D10C3004E0022C01D1103000E01E
:1043600014301AB107682F43076002E00768AF43B3
:104370000760F0BD1AB1838A0B43838202E0838A0F
:104380008B4383827047028A4FF6F0731A40028291
:10439000028A0A430282704782894FF2FF731A40F1
:1043A000828182890A438281704721B1828942F0E9
:1043B0000202828104E082894FF6FD731A408281F5
:1043C0007047028A4FF6DF731A400282028A0A435C
:1043D0000282704721B1028A42F48042028204E0E4
:1043E000028A4BF6FF731A4002827047C1F308023B
:1043F0008280704701468888C0F308007047818931
:1044000041F0010181817047028BD2B20283028B9D
:1044100042EA012202837047028B02F47F42028348
:10442000028B0A430283704721B1828A42F0200244
:10443000828204E0828A4FF6DF731A4082827047DC
:1044400021B1828A42F01002828204E0828A4FF611
:10445000EF731A408282704721B1828A42F00802CB
:10446000828204E0828A4FF6F7731A408282704794
:1044700021B1828942F40042828103E08289C2F341
:104480000E028281704721B1828A42F400628282E8
:1044900004E0828A4FF2FF731A4082827047828A58
:1044A0004FF6FB731A408282828A0A4382827047E7
:1044B00021B1828A42F00202828204E0828A4FF6AF
:1044C000FD731A408282704702460020B1F5007FDA
:1044D00000D100BF13880B400BB1012000E0002089
:1044E000704701F40072B2F5007F00D100BFCA43EB
:1044F0000280704770B5024600240023002500208A
:1045000040F66A16B14200D100BFC1F3421501F076
:104510001F03012606FA03F3012D02D196893340C9
:1045200006E0022D02D1168A334001E0968A33401C
:104530000C12012606FA04F41688344013B10CB1AB
:10454000012000E0002070BD10B50022002340F6DD
:104550006A14A14200D100BF0A1201249440A3B200
:10456000DC43048010BD00000038014000440040DE
:1045700000480040004C00400050004010B5044688
:10458000FE48844208D10121C014FFF7A9FD002193
:10459000E014FFF7A5FDC4E0B4F1804F08D101217C
:1045A0000846FFF7AAFD00210120FFF7A6FDB8E0AD
:1045B000F348844208D101210220FFF79EFD00212B
:1045C0000220FFF79AFDACE0EE48844208D10121B9
:1045D0000420FFF792FD00210420FFF78EFDA0E0EC
:1045E000E948844208D101210820FFF786FD002117
:1045F0000820FFF782FD94E0E448844208D10121BD
:104600001020FFF77AFD00211020FFF776FD88E0EB
:10461000DF48844208D101212020FFF76EFD0021F0
:104620002020FFF76AFD7CE0DA48844208D10121AE
:104630004014FFF755FD00216014FFF751FD70E0B5
:10464000D548844209D10121C804FFF749FD002162
:104650004FF40020FFF744FD63E0D048844209D1C5
:1046600001210805FFF73CFD00214FF48010FFF702
:1046700037FD56E0CA48844209D101214805FFF7B9
:104680002FFD00214FF40010FFF72AFD49E0C54837
:10469000844208D101214020FFF72FFD0021402056
:1046A000FFF72BFD3DE0C048844208D10121802066
:1046B000FFF723FD00218020FFF71FFD31E0BB48FD
:1046C000844208D101218015FFF717FD0021A015B4
:1046D000FFF713FD25E0B648844209D10121080403
:1046E000FFF7FEFC00214FF48030FFF7F9FC18E0E3
:1046F000B048844209D101214804FFF7F1FC0021B0
:104700004FF40030FFF7ECFC0BE0AB48844208D1DB
:1047100001218804FFF7E4FC00214FF48020FFF71B
:10472000DFFC10BD00220288944B98420ED0994BBA
:1047300098420BD0B0F1804F08D0914B984205D0F1
:10474000904B984202D0904B984204D14FF68F7311
:104750001A404B881A438D4B984207D08C4B984295
:1047600004D04FF6FF431A40CB881A4302808B884F
:1047700083850B880385814B98420BD0854B9842EB
:1047800008D08B4B984205D08A4B984202D08A4B76
:10479000984201D10B7A038601238382704770B55A
:1047A000002400220023058C4FF6FE763540058458
:1047B000028C8388048B4FF68F752C40B51E2C40DD
:1047C0000D882C43751E2A400D892A434D882A43A3
:1047D0006A4DA8420BD06F4DA84208D0744DA84234
:1047E00005D0744DA84202D0734DA84213D14FF6A4
:1047F000F7752A404D892A434FF6FB752A408D886C
:104800002A434FF6FF652B404FF6FF552B408D890D
:104810002B43CD892B4383800483CD8885860284F6
:1048200070BD70B5002400220023058C4FF6EF7692
:1048300035400584028C8388048B48F6FF752C4034
:104840004FF6FF452C400D884FF6FF7606EA05250A
:104850002C434FF6DF752A400D8906EA05152A43D9
:104860004D8806EA05152A43444DA84202D0494D19
:10487000A8421DD14FF67F752A404D894FF6FF762D
:1048800006EA05152A434FF6BF752A408D8806EAC9
:1048900005152A434FF6FF352B404FF2FF752B408D
:1048A0008D8906EA85052B43CD8906EA85052B43CC
:1048B00083800483CD880587028470BD70B5002491
:1048C00000220023058C4FF6FF6635400584028CDC
:1048D0008388848B4FF68F752C404FF6FC752C40E7
:1048E0000D882C434FF6FF552A400D894FF6FF7671
:1048F00006EA05252A434D8806EA05252A431F4D69
:10490000A84202D0234DA8421DD14FF2FF752A4084
:104910004D894FF6FF7606EA05252A434FF6FF3507
:104920002A408D8806EA05252A434EF6FF752B405E
:104930004DF6FF752B408D8906EA05152B43CD8971
:1049400006EA05152B4383808483CD8885870284FE
:1049500070BD70B5002200230024058C4EF6FF7652
:1049600035400584038C8488828B48F6FF752A4085
:104970004FF6FF452A400D8820E00000002C014042
:104980000004004000080040000C004000100040FF
:104990000014004000340140004C01400050014030
:1049A0000054014000180040001C0040002000405E
:1049B0000040014000440140004801404FF6FF76AE
:1049C00006EA05252A434DF6FF752B400D8906EAB8
:1049D00005352B434D8806EA05352B43FA4DA84291
:1049E00002D0FA4DA84208D14BF6FF752C408D89B4
:1049F0004FF6FF7606EA85152C4384808283CD88A6
:104A0000A0F84050038470BD828B4FF2FF331A40F0
:104A10008283828B4FF6FF7303EA01231A4382835A
:104A20007047F0B50C461546002200210026078C81
:104A30004EF6FF7C07EA0C070784828B018C4FF649
:104A4000FF7707EA043640F6FF473A404FF6FF7714
:104A500007EA05273A434FF6FF7707EA03373A4359
:104A6000D94FB8420ED0D94FB8420BD0B0F1804FD9
:104A700008D0D74FB84205D0D64FB84202D0D64F53
:104A8000B84206D14DF6FF77394046F48057394396
:104A900005E047F6FF57394044F480573943828395
:104AA0000184F0BD828B4FF6F3731A408283828BB0
:104AB0000A4382837047F0B50C4615460022002158
:104AC0000026078C4FF6FF6C07EA0C070784828BE1
:104AD000018C4FF6FF7707EA04264FF60C773A4031
:104AE0004FF6FF7707EA03172F433A43B64FB84212
:104AF0000ED0B64FB8420BD0B0F1804F08D0B44FB3
:104B0000B84205D0B34FB84202D0B34FB84206D135
:104B10004FF6FF57394046F48077394305E04FF2AE
:104B2000FF57394044F48077394382830184F0BDD4
:104B3000028B4FF2FF331A400283028B4FF6FF7352
:104B400003EA01231A4302837047F0B50C46154669
:104B5000002200210026078C4FF6EF7C07EA0C07A5
:104B60000784028B018C4FF6FF7707EA041640F6A4
:104B7000FF473A404FF6FF7707EA03373A434FF6CD
:104B8000FF7707EA05273A438F4FB8420ED08F4F81
:104B9000B8420BD0B0F1804F08D08D4FB84205D04D
:104BA0008C4FB84202D08C4FB84206D14FF6DF7717
:104BB000394046F01007394305E04FF65F7739403A
:104BC00044F01007394302830184F0BD028B4FF695
:104BD000F3731A400283028B0A4302837047F0B5D5
:104BE0000C46154600220021068C4FF6FE773E400B
:104BF0000684028B018C4FF60C7632407E1C06EA4E
:104C000003162E433243704EB0420ED06F4EB04268
:104C10000BD0B0F1804F08D06D4EB04205D06D4E34
:104C2000B04202D06C4EB04206D14FF6FD76314014
:104C300044F00106314305E04FF6F576314044F08B
:104C40000106314302830184F0BD70B505460C4670
:104C50005D4885420ED05D4885420BD0B5F1804F4E
:104C600008D05B48854205D05A48854202D05A4850
:104C7000854200D100E000BF208850B92389A28876
:104C800061882846FFF7ABFFE1882846FFF79EFFC3
:104C900025E0208804280AD12389A2886188284633
:104CA000FFF753FFE1882846FFF742FF17E020880F
:104CB00008280AD12389A28861882846FFF7FBFECD
:104CC000E1882846FFF7EEFE09E02389A288618883
:104CD0002846FFF7A6FEE1882846FFF795FE70BD3F
:104CE0002DE9F04105460C4600260127608808B9E9
:104CF000022600E00026A088012801D1022700E05A
:104D000001272088A0B92389A28861882846FFF757
:104D100066FFE1882846FFF759FF23893A46314666
:104D20002846FFF712FFE1882846FFF701FF13E04E
:104D30002389A28861882846FFF707FFE188284673
:104D4000FFF7F6FE23893A4631462846FFF747FF2C
:104D5000E1882846FFF73AFFBDE8F0810A884B88D2
:104D60001A438B881A43CB881A430B891A434B8901
:104D70001A438B891A43A0F8442070474FF6FF71FD
:104D8000818000210180C180418001727047002133
:104D9000018041808180C180018141818181C18107
:104DA0007047002101804180012181800021C18064
:104DB000018170470021018041808180C180018193
:104DC0004181818170470000002C01400034014086
:104DD0000004004000080040000C004021B102889F
:104DE00042F00102028004E002884FF6FE731A408E
:104DF0000280704731B1B0F8442042F40042A0F87C
:104E0000442005E0B0F84420C2F30E02A0F844208C
:104E100070471AB183890B43838102E083898B43F6
:104E2000838170478182704741EA0203A0F84830CD
:104E300070471AB183890B43838102E083898B43D6
:104E40008381704701894FF6F872114001817047E4
:104E50000A46002101894FF68F73194011430181E1
:104E6000704730B504460D4629462046FFF7F0FF4F
:104E7000208940F00700208130BD2DE9F041044633
:104E80000D4616461F46602D06D13B46012231468F
:104E90002046FFF75AFE05E03B46012231462046F8
:104EA000FFF79DFE29462046FFF7D2FF208940F0FC
:104EB00007002081BDE8F08130B50C460021018952
:104EC000C9B24FF6FF7505EA03251543254329436B
:104ED000018130BD2DE9F04105460E461746984642
:104EE000002443463A4631462846FFF7E5FF2C8921
:104EF0004FF6F870044044F007044FF68F700440FA
:104F000044F070042C81BDE8F081F0B504460D46F4
:104F100016461F463B46324629462046FFF7CCFF41
:104F2000208940F480402081F0BD01858282704755
:104F30000A46002101884FF68F7319401143018002
:104F40007047F0B50C4615461E460021002200238E
:104F50000189028B038C4FF6F877394021434FF6D5
:104F6000FC473A4040F201173A434FF6DD773B40A9
:104F70004FF6FF7707EA06172F433B430181028371
:104F80000384F0BD0A460021018B4FF68F73194050
:104F90001143018370470A460021018B48F6FF73D5
:104FA00019404FF6FF7303EA022319430183704748
:104FB0000A460021818B4FF68F731940114381837C
:104FC00070470A460021818B48F6FF7319404FF65F
:104FD000FF7303EA022319438183704721B10288DA
:104FE00042F08002028004E002884FF67F731A408C
:104FF0000280704721B1828842F00402828004E07E
:1050000082884FF6FB731A408280704721B18288F4
:1050100042F00802828004E082884FF6F7731A405B
:105020008280704721B1828842F00102828004E0D0
:1050300082884FF6FE731A40828070470A4600212C
:10504000018B4FF6F77319401143018370470A46ED
:105050000021018B4FF2FF7319404FF6FF7303EAF3
:1050600002231943018370470A460021818B4FF6C2
:10507000F77319401143818370470A460021818BE1
:105080004FF2FF7319404FF6FF7303EA02231943EF
:10509000818370470A460021018B4FF6FB7319404C
:1050A0001143018370470A460021018B4FF6FF33FD
:1050B00019404FF6FF7303EA022319430183704737
:1050C0000A460021818B4FF6FB73194011438183FF
:1050D00070470A460021818B4FF6FF3319404FF687
:1050E000FF7303EA02231943818370470A460021B4
:1050F000018B4FF67F7319401143018370470A46B5
:105100000021018BC1F30E014FF6FF7303EA022366
:105110001943018370470A460021818B4FF67F7344
:1051200019401143818370470A460021818BC1F3E6
:105130000E014FF6FF7303EA022319438183704780
:105140000A460021018C4FF6FD731940114301847A
:1051500070470A460021018C4FF6F773194011433E
:10516000018470470A460021018C4FF6DF73194015
:105170004FF6FF7303EA02131943018470470A468E
:105180000021018C4FF67F7319404FF6FF7303EA3D
:1051900002131943018470470A460021018C4FF61F
:1051A000FF5319404FF6FF7303EA022319430184AA
:1051B00070470A460021018C4FF2FF7319404FF6E9
:1051C000FF7303EA02231943018470470A46002152
:1051D000018C4DF6FF7319404FF6FF7303EA02335B
:1051E00019430184704730B5002301248C40A3B2D9
:1051F000048C9C430484048C02FA01F5ADB22C4368
:10520000048430BD30B5002304248C40A3B2048C48
:105210009C430484048C02FA01F5ADB22C4304844F
:1052200030BD70B503460020002418461830012513
:105230008D40ACB21D8CA5431D8409B1082909D14C
:1052400000EB6100056825F07005056005681543F1
:1052500005600EE00D1FC5F34E052844056825F4D2
:10526000E045056005684FF6FF7606EA02263543FD
:10527000056070BD21B1028842F00202028004E0A4
:1052800002884FF6FD731A400280704721B10288F0
:1052900042F00402028004E002884FF6FB731A40D9
:1052A0000280704721B1828842F08002828004E04F
:1052B00082884FF67F731A408280704702884FF6CB
:1052C000F7731A40028002880A430280704782887E
:1052D0004FF68F731A40828082880A43828070471B
:1052E00002894FF6F8731A40028102890A4302814B
:1052F000704702894FF67F731A40028102890A4380
:10530000028170478184704781857047818670472C
:105310000187704781877047A0F840107047028866
:105320004FF6FF431A40028002880A43028070470A
:105330000146888E70470146088F70470146888F66
:1053400070470146B1F8400070470146888C7047AD
:105350000146088D704702460020138A0B400BB1AE
:10536000012000E000207047CA430282704730B538
:105370000246002000230024158A05EA01039589CE
:1053800005EA010413B10CB1012000E0002030BD9A
:10539000CA43028270477047704770477047704732
:1053A00010B500F009F8006810BD10B5044600F013
:1053B00003F8046010BD0000004870477813002017
:1053C00000487047781300207546FFF7F9FFAE4696
:1053D00005006946534620F00700854618B020B501
:1053E000FEF7C8FABDE820404FF000064FF0000776
:1053F0004FF000084FF0000B21F00701AC46ACE87D
:10540000C009ACE8C009ACE8C009ACE8C0098D46E9
:10541000704710B50446AFF300802046BDE8104049
:10542000FAF7CDBE490050EAC12018BF04204A0D4A
:1054300018BF40F0010040F2FF72B2EB515F08BFAD
:1054400040F00200012808BF052070472DE9F74F02
:10545000144694B00021C4E902111599079121F076
:105460000045C9498D4206DC1599C4E9000117B011
:105470000020BDE8F08FC549DFF814A3A9423CDD48
:105480000799C44E0029C44FC44A1599534619DDE3
:1054900001F012FC554506D0C14AC24B01F00CFC8C
:1054A000C4E900010AE04FF0D352BE4B01F004FC06
:1054B00032463B4601F000FCC4E9000117B0012070
:1054C000BDE8F08F00F05EFF554506D0B44AB54BFD
:1054D00000F058FFC4E900010AE04FF0D352B14B8D
:1054E00000F050FF32463B4600F04CFFC4E900019B
:1054F00017B04FF0FF30BDE8F08FAB49A9421599C6
:1055000078DB21F0004183468846A84AA84B01F089
:10551000E3F90022A74B00F035FF01F047F90990AD
:1055200001F073F906460F469C4A534601F0D4F940
:1055300043465A4601F0CEFA80468A46984A994B2D
:105540003046394601F0C8F92A0D01250B92424632
:10555000534601F0BFFA032DC4E9000139D00B987E
:10556000C1F30A51401A05EB45111139814230DA75
:105570009148C346784400EB0510CDF80CA00C9080
:10558000D0E900233046394601F0A6F902460B4621
:10559000049106905846039901F08EFB80468A4696
:1055A00002460B465846039901F086FB049B069A77
:1055B00001F082FB83460C9803913946D0E902231F
:1055C000304601F089F95A46039B01F075FB6D1CCA
:1055D000BDE707980028A2BF099817B0BDE8F08F73
:1055E000616881F000416160099817B04042BDE8F0
:1055F000F08FFFE784461598C1F31301C0F30A50FA
:10560000A0F2F5304FEA601800F01F06C6F1200046
:10561000139000200690079041F4801E05206D46EF
:1056200076B1664A08EB00017A4452F8213002EB69
:105630008101B3404A68139922FA01F1194305E048
:105640005F4908EB0002794451F82210A1FB0E27B4
:10565000A1FB0C131A449A4234BF0123002303EB2D
:10566000070A05EB8003D3E901B70F448F4234BF2B
:105670000121002193448B4411B1934502D903E0E9
:10568000934501D2012100E00021C3E901B7514453
:1056900045F82010011EA0F10100C1DC0298059F11
:1056A00000F10050800F12900298DDE9035680004F
:1056B00001F0ABF8834628460D9101F0BDF86FF07C
:1056C0001D0201F0A2FFCDE90E01304601F0B4F851
:1056D0006FF03D0201F099FF80468A46384601F09E
:1056E000ABF86FF05D0201F090FF0746424653466B
:1056F000119100F047FEDDE90E2300F043FE5A460B
:105700000D9B00F03FFE00250E465A4628460D9B95
:1057100001F0D2FADDE90E2301F0CEFA42465346FB
:1057200001F0CAFA3A46119B01F0D4F9DFF898A0CB
:10573000244A534601F0D0F807468846234A244BB2
:105740003146284601F0C8F83A46434600F01AFEB2
:10575000074688464FF0A84253463146284601F096
:10576000BBF83A46434600F00DFE159A12F0004F82
:1057700004D0129A81F0004152421292C4E9000111
:10578000129817B0BDE8F08FFB21E93F7CD90240A9
:10579000FB21F93F7370032E8A19A33B000040548C
:1057A0003163621A61B4D03DFB21394183C8C96DB0
:1057B000305FE43F0000E03F882200000422000048
:1057C000E6210000182D4454FB21F93D3326A61193
:1057D000460B113C2DE9FF4D21F0004807460C46D1
:1057E000B8F1795F08DA00F0E1FF002801BF00207E
:1057F000324904B0BDE8F08D3A46234610461946BA
:1058000001F06AF8054602462D480E460B46062171
:10581000784400F05DF82A46334601F05DF8DDE992
:10582000022382468B463846214601F055F804464D
:105830000F4652465B462846314601F04DF8224657
:105840003B4601F039FA07468A464FF0FF322846B8
:10585000314601F0DAFE1B4A90450ADA3A465346D1
:1058600001F02AFA04B00022BDE8F04D134B01F01C
:1058700031B9154A4245A8BFA8F500154FF00004FC
:10588000B8BF124D22462B4601F016FA064688464E
:1058900022462B460020094901F00EFA04460D4627
:1058A0003A4653463046414601F006FA04B02246D5
:1058B0002B46BDE8F04D01F00DB900000000F03FAF
:1058C000BC1F00003333D33F0000E93F0000D23F4C
:1058D0002DE9F0414F1E00EBC7010446D1E900015C
:1058E00015461E4637F006020DD02A46334600F014
:1058F000F3FF7F1E04EBC703D3E9002300F042FD52
:1059000037F00602F1D1022F25D0042F13D0062F35
:1059100018BFBDE8F0812A46334600F0DDFFD4E928
:105920000A2300F02FFD2A46334600F0D5FFD4E9C4
:10593000082300F027FD2A46334600F0CDFFD4E9C6
:10594000062300F01FFD2A46334600F0C5FFD4E9C8
:10595000042300F017FD2A46334600F0BDFFD4E9CA
:10596000022300F00FFD2A46334600F0B5FFD4E9CC
:105970000023BDE8F04100F005BD00002DE9FF4D1A
:10598000054621F0004084B00C46B0F1795F0BDA97
:105990002846FFF747FD042808BF00F06FF82846A7
:1059A00008B02146BDE8F08D2A460B46104600F0AF
:1059B00093FF06460F462A46234600F08DFF804699
:1059C00026488A4632463B4605217844FFF780FF49
:1059D00083461098029160B3214A224B40465146BB
:1059E00000F07AFFCDE900015A4640465146029B3D
:1059F00000F072FF82468846DDE906014FF0FF3273
:105A000001F003FE5246434601F056F932463B464A
:105A100000F062FFDDE9062301F04EF9DDE9002325
:105A200001F04AF908B02A462346BDE8F04D01F0DE
:105A300051B80B465A463046394600F04DFF084AE9
:105A4000084B00F09FFC4246534600F045FF08B06B
:105A50002A462346BDE8F04D00F094BCFA1E000033
:105A6000495555555555C5BF012201F0CEBD0022FF
:105A700013461046114600F041BD0000024A0020C6
:105A8000110701F0C2BD000001FDFFFF2DE9F04D3F
:105A90000546DFF8388221F000408D4F82B00C4679
:105AA000404520DBA0EB080129430BD089498842FF
:105AB00001DC10D17DB102B028462146BDE8F04D91
:105AC000FFF7D2BF002CC7BF0020014682483946ED
:105AD00002B0BDE8F08D0120FFF767FC02B0BDE821
